{
  "contractName": "CompoundIntegrator",
  "abi": [
    {
      "inputs": [
        {
          "internalType": "address",
          "name": "_controller",
          "type": "address"
        },
        {
          "internalType": "address",
          "name": "_oracle",
          "type": "address"
        }
      ],
      "stateMutability": "nonpayable",
      "type": "constructor"
    },
    {
      "inputs": [],
      "name": "controller",
      "outputs": [
        {
          "internalType": "contract ControllerInterface",
          "name": "",
          "type": "address"
        }
      ],
      "stateMutability": "view",
      "type": "function"
    },
    {
      "inputs": [],
      "name": "priceOracle",
      "outputs": [
        {
          "internalType": "contract PriceOracleInterface",
          "name": "",
          "type": "address"
        }
      ],
      "stateMutability": "view",
      "type": "function"
    },
    {
      "inputs": [
        {
          "internalType": "address",
          "name": "_cTokenAddress",
          "type": "address"
        },
        {
          "internalType": "uint256",
          "name": "underlyingAmount",
          "type": "uint256"
        }
      ],
      "name": "supply",
      "outputs": [],
      "stateMutability": "nonpayable",
      "type": "function"
    },
    {
      "inputs": [
        {
          "internalType": "address",
          "name": "cToken",
          "type": "address"
        }
      ],
      "name": "redeem",
      "outputs": [],
      "stateMutability": "nonpayable",
      "type": "function"
    },
    {
      "inputs": [
        {
          "internalType": "address",
          "name": "cTokenAddress",
          "type": "address"
        }
      ],
      "name": "enterMarket",
      "outputs": [],
      "stateMutability": "nonpayable",
      "type": "function"
    },
    {
      "inputs": [
        {
          "internalType": "address",
          "name": "cTokenAddress",
          "type": "address"
        },
        {
          "internalType": "uint256",
          "name": "amount",
          "type": "uint256"
        }
      ],
      "name": "borrow",
      "outputs": [],
      "stateMutability": "nonpayable",
      "type": "function"
    },
    {
      "inputs": [
        {
          "internalType": "address",
          "name": "cTokenAddress",
          "type": "address"
        },
        {
          "internalType": "uint256",
          "name": "underlyingAmount",
          "type": "uint256"
        }
      ],
      "name": "repayBorrow",
      "outputs": [],
      "stateMutability": "nonpayable",
      "type": "function"
    },
    {
      "inputs": [
        {
          "internalType": "address",
          "name": "cTokenAddress",
          "type": "address"
        }
      ],
      "name": "getMaxBorrow",
      "outputs": [
        {
          "internalType": "uint256",
          "name": "",
          "type": "uint256"
        }
      ],
      "stateMutability": "view",
      "type": "function"
    }
  ],
  "bytecode": "0x608060405234801561001057600080fd5b5060405161113d38038061113d8339818101604052604081101561003357600080fd5b810190808051906020019092919080519060200190929190505050816000806101000a81548173ffffffffffffffffffffffffffffffffffffffff021916908373ffffffffffffffffffffffffffffffffffffffff16021790555080600160006101000a81548173ffffffffffffffffffffffffffffffffffffffff021916908373ffffffffffffffffffffffffffffffffffffffff160217905550505061105d806100e06000396000f3fe608060405234801561001057600080fd5b50600436106100885760003560e01c8063abdb5ea81161005b578063abdb5ea814610197578063f2b9fdb8146101e5578063f77c479114610233578063fd1c317a1461026757610088565b80632630c12f1461008d5780633fe5d425146100c15780634b8a35291461010557806395a2251f14610153575b600080fd5b6100956102bf565b604051808273ffffffffffffffffffffffffffffffffffffffff16815260200191505060405180910390f35b610103600480360360208110156100d757600080fd5b81019080803573ffffffffffffffffffffffffffffffffffffffff1690602001909291905050506102e5565b005b6101516004803603604081101561011b57600080fd5b81019080803573ffffffffffffffffffffffffffffffffffffffff16906020019092919080359060200190929190505050610595565b005b6101956004803603602081101561016957600080fd5b81019080803573ffffffffffffffffffffffffffffffffffffffff16906020019092919050505061072e565b005b6101e3600480360360408110156101ad57600080fd5b81019080803573ffffffffffffffffffffffffffffffffffffffff16906020019092919080359060200190929190505050610856565b005b610231600480360360408110156101fb57600080fd5b81019080803573ffffffffffffffffffffffffffffffffffffffff16906020019092919080359060200190929190505050610a9c565b005b61023b610ce2565b604051808273ffffffffffffffffffffffffffffffffffffffff16815260200191505060405180910390f35b6102a96004803603602081101561027d57600080fd5b81019080803573ffffffffffffffffffffffffffffffffffffffff169060200190929190505050610d06565b6040518082815260200191505060405180910390f35b600160009054906101000a900473ffffffffffffffffffffffffffffffffffffffff1681565b6060600167ffffffffffffffff811180156102ff57600080fd5b5060405190808252806020026020018201604052801561032e5781602001602082028036833780820191505090505b509050818160008151811061033f57fe5b602002602001019073ffffffffffffffffffffffffffffffffffffffff16908173ffffffffffffffffffffffffffffffffffffffff1681525050606060008054906101000a900473ffffffffffffffffffffffffffffffffffffffff1673ffffffffffffffffffffffffffffffffffffffff1663c2998238836040518263ffffffff1660e01b81526004018080602001828103825283818151815260200191508051906020019060200280838360005b8381101561040a5780820151818401526020810190506103ef565b5050505090500192505050600060405180830381600087803b15801561042f57600080fd5b505af1158015610443573d6000803e3d6000fd5b505050506040513d6000823e3d601f19601f82011682018060405250602081101561046d57600080fd5b810190808051604051939291908464010000000082111561048d57600080fd5b838201915060208201858111156104a357600080fd5b82518660208202830111640100000000821117156104c057600080fd5b8083526020830192505050908051906020019060200280838360005b838110156104f75780820151818401526020810190506104dc565b50505050905001604052505050905060008160008151811061051557fe5b602002602001015114610590576040517f08c379a00000000000000000000000000000000000000000000000000000000081526004018080602001828103825260138152602001807f656e746572206d61726b6574206661696c65640000000000000000000000000081525060200191505060405180910390fd5b505050565b600082905060008173ffffffffffffffffffffffffffffffffffffffff16636f307dc36040518163ffffffff1660e01b815260040160206040518083038186803b1580156105e257600080fd5b505afa1580156105f6573d6000803e3d6000fd5b505050506040513d602081101561060c57600080fd5b8101908080519060200190929190505050905060008273ffffffffffffffffffffffffffffffffffffffff1663c5ebeaec856040518263ffffffff1660e01b815260040180828152602001915050602060405180830381600087803b15801561067457600080fd5b505af1158015610688573d6000803e3d6000fd5b505050506040513d602081101561069e57600080fd5b8101908080519060200190929190505050905060008114610727576040517f08c379a00000000000000000000000000000000000000000000000000000000081526004018080602001828103825260108152602001807f626f72726f77696e67206661696c65640000000000000000000000000000000081525060200191505060405180910390fd5b5050505050565b600081905060008173ffffffffffffffffffffffffffffffffffffffff166395a2251f846040518263ffffffff1660e01b8152600401808273ffffffffffffffffffffffffffffffffffffffff168152602001915050602060405180830381600087803b15801561079e57600080fd5b505af11580156107b2573d6000803e3d6000fd5b505050506040513d60208110156107c857600080fd5b8101908080519060200190929190505050905060008114610851576040517f08c379a00000000000000000000000000000000000000000000000000000000081526004018080602001828103825260148152602001807f63546f6b656e2072656465656d206661696c656400000000000000000000000081525060200191505060405180910390fd5b505050565b600082905060008173ffffffffffffffffffffffffffffffffffffffff16636f307dc36040518163ffffffff1660e01b815260040160206040518083038186803b1580156108a357600080fd5b505afa1580156108b7573d6000803e3d6000fd5b505050506040513d60208110156108cd57600080fd5b810190808051906020019092919050505090508073ffffffffffffffffffffffffffffffffffffffff1663095ea7b385856040518363ffffffff1660e01b8152600401808373ffffffffffffffffffffffffffffffffffffffff16815260200182815260200192505050602060405180830381600087803b15801561095157600080fd5b505af1158015610965573d6000803e3d6000fd5b505050506040513d602081101561097b57600080fd5b81019080805190602001909291905050505060008273ffffffffffffffffffffffffffffffffffffffff16630e752702856040518263ffffffff1660e01b815260040180828152602001915050602060405180830381600087803b1580156109e257600080fd5b505af11580156109f6573d6000803e3d6000fd5b505050506040513d6020811015610a0c57600080fd5b8101908080519060200190929190505050905060008114610a95576040517f08c379a00000000000000000000000000000000000000000000000000000000081526004018080602001828103825260108152602001807f72657061796d656e74206661696c65640000000000000000000000000000000081525060200191505060405180910390fd5b5050505050565b600082905060008173ffffffffffffffffffffffffffffffffffffffff16636f307dc36040518163ffffffff1660e01b815260040160206040518083038186803b158015610ae957600080fd5b505afa158015610afd573d6000803e3d6000fd5b505050506040513d6020811015610b1357600080fd5b810190808051906020019092919050505090508073ffffffffffffffffffffffffffffffffffffffff1663095ea7b382856040518363ffffffff1660e01b8152600401808373ffffffffffffffffffffffffffffffffffffffff16815260200182815260200192505050602060405180830381600087803b158015610b9757600080fd5b505af1158015610bab573d6000803e3d6000fd5b505050506040513d6020811015610bc157600080fd5b81019080805190602001909291905050505060008273ffffffffffffffffffffffffffffffffffffffff1663a0712d68856040518263ffffffff1660e01b815260040180828152602001915050602060405180830381600087803b158015610c2857600080fd5b505af1158015610c3c573d6000803e3d6000fd5b505050506040513d6020811015610c5257600080fd5b8101908080519060200190929190505050905060008114610cdb576040517f08c379a00000000000000000000000000000000000000000000000000000000081526004018080602001828103825260128152602001807f63546f6b656e206d696e74206661696c6564000000000000000000000000000081525060200191505060405180910390fd5b5050505050565b60008054906101000a900473ffffffffffffffffffffffffffffffffffffffff1681565b60008060008060008054906101000a900473ffffffffffffffffffffffffffffffffffffffff1673ffffffffffffffffffffffffffffffffffffffff16635ec88c79306040518263ffffffff1660e01b8152600401808273ffffffffffffffffffffffffffffffffffffffff16815260200191505060606040518083038186803b158015610d9357600080fd5b505afa158015610da7573d6000803e3d6000fd5b505050506040513d6060811015610dbd57600080fd5b8101908080519060200190929190805190602001909291908051906020019092919050505092509250925060008314610e5e576040517f08c379a000000000000000000000000000000000000000000000000000000000815260040180806020018281038252601c8152602001807f676574206163636f756e74206c6971756964697479206661696c65640000000081525060200191505060405180910390fd5b60008114610ed4576040517f08c379a00000000000000000000000000000000000000000000000000000000081526004018080602001828103825260128152602001807f6163636f756e7420756e6465727761746572000000000000000000000000000081525060200191505060405180910390fd5b60008211610f4a576040517f08c379a00000000000000000000000000000000000000000000000000000000081526004018080602001828103825260208152602001807f6163636f756e7420646f6573206e6f74206861766520636f6c6c61746572616c81525060200191505060405180910390fd5b6000600160009054906101000a900473ffffffffffffffffffffffffffffffffffffffff1673ffffffffffffffffffffffffffffffffffffffff1663fc57d4df876040518263ffffffff1660e01b8152600401808273ffffffffffffffffffffffffffffffffffffffff16815260200191505060206040518083038186803b158015610fd557600080fd5b505afa158015610fe9573d6000803e3d6000fd5b505050506040513d6020811015610fff57600080fd5b8101908080519060200190929190505050905080838161101b57fe5b0494505050505091905056fea2646970667358221220f6d21e7f8463d2e7aaa069eee7f4ad447d5f633b5077bb0f508aaf02e188b37a64736f6c63430007030033",
  "immutableReferences": {},
  "source": "// SPDX-License-Identifier: MIT\npragma solidity 0.7.3;\n\nimport \"./IERC20.sol\";\nimport \"./PriceOracleInterface.sol\";\nimport \"./CTokenInterface.sol\";\nimport \"./ControllerInterface.sol\";\n\ncontract CompoundIntegrator {\n\n    ControllerInterface public controller;\n    PriceOracleInterface public priceOracle;\n\n    constructor(address _controller, address _oracle) {\n        controller = ControllerInterface(_controller);\n        priceOracle = PriceOracleInterface(_oracle);\n    }\n\n    function supply(address _cTokenAddress, uint underlyingAmount) external {\n        CTokenInterface ctoken = CTokenInterface(_cTokenAddress);\n        address underlyingAddress = ctoken.underlying();\n        IERC20(underlyingAddress).approve( underlyingAddress, underlyingAmount);\n        uint result = ctoken.mint(underlyingAmount);\n        require(result == 0, \"cToken mint failed\");\n    }\n\n    function redeem(address cToken) external {\n        CTokenInterface ctoken = CTokenInterface(cToken);\n        uint result = ctoken.redeem(cToken);\n        require(result == 0, \"cToken redeem failed\");\n    }\n\n    function enterMarket(address cTokenAddress) external{\n        address[] memory markets = new address[](1);\n        markets[0] = cTokenAddress;\n        uint[] memory results = controller.enterMarkets(markets);\n        require(results[0] == 0, \"enter market failed\");\n    }\n\n    function borrow(address cTokenAddress, uint amount) external{\n        CTokenInterface ctoken = CTokenInterface(cTokenAddress);\n        address underlyingAddress = ctoken.underlying();\n        uint result = ctoken.borrow(amount);\n        require(result == 0, \"borrowing failed\");\n    }\n\n    function repayBorrow(address cTokenAddress, uint underlyingAmount) external {\n        CTokenInterface ctoken = CTokenInterface(cTokenAddress);\n        address underlyingAddress = ctoken.underlying();\n        IERC20(underlyingAddress).approve(cTokenAddress, underlyingAmount);\n        uint results = ctoken.repayBorrow(underlyingAmount);\n        require(results == 0, \"repayment failed\");\n    }\n\n    function getMaxBorrow(address cTokenAddress) external view returns(uint) {\n        (uint result, uint liquidity, uint shortfall) = controller.getAccountLiquidity(address(this));\n        require(result == 0, \"get account liquidity failed\");\n        require(shortfall == 0, \"account underwater\");\n        require(liquidity > 0, \"account does not have collateral\");\n        uint underlyingPrice = priceOracle.getUnderlyingPrice(cTokenAddress);\n        return liquidity/underlyingPrice;\n    }  \n}",
  "sourcePath": "/home/anthler/Desktop/BOOT-FINANCE/compound-integration/contracts/CompoundIntegrator.sol",
  "compiler": {
    "name": "solc",
    "version": "0.7.3+commit.9bfce1f6.Emscripten.clang"
  },
  "schemaVersion": "3.3.4",
  "updatedAt": "2021-03-10T15:01:57.842Z",
  "devdoc": {
    "kind": "dev",
    "methods": {},
    "version": 1
  },
  "userdoc": {
    "kind": "user",
    "methods": {},
    "version": 1
  }
}